{
  "contractName": "MultiSigWallet",
  "abi": [
    {
      "inputs": [
        {
          "internalType": "address[]",
          "name": "_approvers",
          "type": "address[]"
        }
      ],
      "stateMutability": "nonpayable",
      "type": "constructor"
    },
    {
      "inputs": [
        {
          "internalType": "uint256",
          "name": "",
          "type": "uint256"
        }
      ],
      "name": "approvers",
      "outputs": [
        {
          "internalType": "address",
          "name": "",
          "type": "address"
        }
      ],
      "stateMutability": "view",
      "type": "function",
      "constant": true
    },
    {
      "inputs": [],
      "name": "quorum",
      "outputs": [
        {
          "internalType": "uint256",
          "name": "",
          "type": "uint256"
        }
      ],
      "stateMutability": "view",
      "type": "function",
      "constant": true
    },
    {
      "stateMutability": "payable",
      "type": "receive",
      "payable": true
    },
    {
      "inputs": [
        {
          "internalType": "address",
          "name": "newApprover",
          "type": "address"
        }
      ],
      "name": "addApprover",
      "outputs": [],
      "stateMutability": "nonpayable",
      "type": "function"
    },
    {
      "inputs": [],
      "name": "getApprovers",
      "outputs": [
        {
          "internalType": "address[]",
          "name": "",
          "type": "address[]"
        }
      ],
      "stateMutability": "view",
      "type": "function",
      "constant": true
    },
    {
      "inputs": [],
      "name": "getTransfers",
      "outputs": [
        {
          "components": [
            {
              "internalType": "uint256",
              "name": "transferId",
              "type": "uint256"
            },
            {
              "internalType": "address payable",
              "name": "to",
              "type": "address"
            },
            {
              "internalType": "uint256",
              "name": "amount",
              "type": "uint256"
            },
            {
              "internalType": "uint256",
              "name": "approvals",
              "type": "uint256"
            },
            {
              "internalType": "bool",
              "name": "sent",
              "type": "bool"
            }
          ],
          "internalType": "struct MultiSigWallet.Transfer[]",
          "name": "",
          "type": "tuple[]"
        }
      ],
      "stateMutability": "view",
      "type": "function",
      "constant": true
    },
    {
      "inputs": [
        {
          "internalType": "uint256",
          "name": "_amount",
          "type": "uint256"
        },
        {
          "internalType": "address payable",
          "name": "_to",
          "type": "address"
        }
      ],
      "name": "createTransfer",
      "outputs": [],
      "stateMutability": "nonpayable",
      "type": "function"
    },
    {
      "inputs": [
        {
          "internalType": "uint256",
          "name": "_transferId",
          "type": "uint256"
        }
      ],
      "name": "approveTransfer",
      "outputs": [],
      "stateMutability": "nonpayable",
      "type": "function"
    }
  ],
  "bytecode": "0x60806040523480156200001157600080fd5b506040516200179638038062001796833981810160405281019062000037919062000340565b80600090805190602001906200004f929190620000a4565b5060008054905060018190555033600260006101000a81548173ffffffffffffffffffffffffffffffffffffffff021916908373ffffffffffffffffffffffffffffffffffffffff1602179055505062000391565b82805482825590600052602060002090810192821562000120579160200282015b828111156200011f5782518260006101000a81548173ffffffffffffffffffffffffffffffffffffffff021916908373ffffffffffffffffffffffffffffffffffffffff16021790555091602001919060010190620000c5565b5b5090506200012f919062000133565b5090565b5b808211156200014e57600081600090555060010162000134565b5090565b6000604051905090565b600080fd5b600080fd5b600080fd5b6000601f19601f8301169050919050565b7f4e487b7100000000000000000000000000000000000000000000000000000000600052604160045260246000fd5b620001b6826200016b565b810181811067ffffffffffffffff82111715620001d857620001d76200017c565b5b80604052505050565b6000620001ed62000152565b9050620001fb8282620001ab565b919050565b600067ffffffffffffffff8211156200021e576200021d6200017c565b5b602082029050602081019050919050565b600080fd5b600073ffffffffffffffffffffffffffffffffffffffff82169050919050565b6000620002618262000234565b9050919050565b620002738162000254565b81146200027f57600080fd5b50565b600081519050620002938162000268565b92915050565b6000620002b0620002aa8462000200565b620001e1565b90508083825260208201905060208402830185811115620002d657620002d56200022f565b5b835b81811015620003035780620002ee888262000282565b845260208401935050602081019050620002d8565b5050509392505050565b600082601f83011262000325576200032462000166565b5b81516200033784826020860162000299565b91505092915050565b6000602082840312156200035957620003586200015c565b5b600082015167ffffffffffffffff8111156200037a576200037962000161565b5b62000388848285016200030d565b91505092915050565b6113f580620003a16000396000f3fe6080604052600436106100745760003560e01c80636cb3e8ef1161004e5780636cb3e8ef146100ff578063b646c1941461012a578063cacca4a014610153578063d3650fb81461017c5761007b565b80631703a018146100805780632f65142c146100ab5780634c12fa47146100d65761007b565b3661007b57005b600080fd5b34801561008c57600080fd5b506100956101b9565b6040516100a29190610b0b565b60405180910390f35b3480156100b757600080fd5b506100c06101bf565b6040516100cd9190610ca8565b60405180910390f35b3480156100e257600080fd5b506100fd60048036038101906100f89190610d27565b6102ad565b005b34801561010b57600080fd5b50610114610491565b6040516101219190610e37565b60405180910390f35b34801561013657600080fd5b50610151600480360381019061014c9190610e85565b61051f565b005b34801561015f57600080fd5b5061017a60048036038101906101759190610eb2565b610676565b005b34801561018857600080fd5b506101a3600480360381019061019e9190610eb2565b610ab3565b6040516101b09190610eee565b60405180910390f35b60015481565b60606003805480602002602001604051908101604052809291908181526020016000905b828210156102a457838290600052602060002090600502016040518060a0016040529081600082015481526020016001820160009054906101000a900473ffffffffffffffffffffffffffffffffffffffff1673ffffffffffffffffffffffffffffffffffffffff1673ffffffffffffffffffffffffffffffffffffffff16815260200160028201548152602001600382015481526020016004820160009054906101000a900460ff161515151581525050815260200190600101906101e3565b50505050905090565b6000805b60008054905081101561034c57600081815481106102d2576102d1610f09565b5b9060005260206000200160009054906101000a900473ffffffffffffffffffffffffffffffffffffffff1673ffffffffffffffffffffffffffffffffffffffff163373ffffffffffffffffffffffffffffffffffffffff161415610339576001915061034c565b808061034490610f67565b9150506102b1565b506001151581151514610394576040517f08c379a000000000000000000000000000000000000000000000000000000000815260040161038b90611033565b60405180910390fd5b60036040518060a0016040528060038054905081526020018473ffffffffffffffffffffffffffffffffffffffff168152602001858152602001600081526020016000151581525090806001815401808255809150506001900390600052602060002090600502016000909190919091506000820151816000015560208201518160010160006101000a81548173ffffffffffffffffffffffffffffffffffffffff021916908373ffffffffffffffffffffffffffffffffffffffff160217905550604082015181600201556060820151816003015560808201518160040160006101000a81548160ff0219169083151502179055505050505050565b6060600080548060200260200160405190810160405280929190818152602001828054801561051557602002820191906000526020600020905b8160009054906101000a900473ffffffffffffffffffffffffffffffffffffffff1673ffffffffffffffffffffffffffffffffffffffff16815260200190600101908083116104cb575b5050505050905090565b600260009054906101000a900473ffffffffffffffffffffffffffffffffffffffff1673ffffffffffffffffffffffffffffffffffffffff163373ffffffffffffffffffffffffffffffffffffffff16146105af576040517f08c379a00000000000000000000000000000000000000000000000000000000081526004016105a6906110c5565b60405180910390fd5b6000819080600181540180825580915050600190039060005260206000200160009091909190916101000a81548173ffffffffffffffffffffffffffffffffffffffff021916908373ffffffffffffffffffffffffffffffffffffffff1602179055506001600081548092919061062590610f67565b919050555060008054905060015414610673576040517f08c379a000000000000000000000000000000000000000000000000000000000815260040161066a9061117d565b60405180910390fd5b50565b6000805b600080549050811015610715576000818154811061069b5761069a610f09565b5b9060005260206000200160009054906101000a900473ffffffffffffffffffffffffffffffffffffffff1673ffffffffffffffffffffffffffffffffffffffff163373ffffffffffffffffffffffffffffffffffffffff1614156107025760019150610715565b808061070d90610f67565b91505061067a565b50600115158115151461075d576040517f08c379a000000000000000000000000000000000000000000000000000000000815260040161075490611033565b60405180910390fd5b600015156003838154811061077557610774610f09565b5b906000526020600020906005020160040160009054906101000a900460ff161515146107d6576040517f08c379a00000000000000000000000000000000000000000000000000000000081526004016107cd9061120f565b60405180910390fd5b60001515600460003373ffffffffffffffffffffffffffffffffffffffff1673ffffffffffffffffffffffffffffffffffffffff168152602001908152602001600020600084815260200190815260200160002060009054906101000a900460ff1615151461087a576040517f08c379a0000000000000000000000000000000000000000000000000000000008152600401610871906112a1565b60405180910390fd5b6001600460003373ffffffffffffffffffffffffffffffffffffffff1673ffffffffffffffffffffffffffffffffffffffff168152602001908152602001600020600084815260200190815260200160002060006101000a81548160ff021916908315150217905550600382815481106108f7576108f6610f09565b5b9060005260206000209060050201600301600081548092919061091990610f67565b91905055506001546003838154811061093557610934610f09565b5b9060005260206000209060050201600301541415610aaf5760016003838154811061096357610962610f09565b5b906000526020600020906005020160040160006101000a81548160ff0219169083151502179055506000600383815481106109a1576109a0610f09565b5b906000526020600020906005020160010160009054906101000a900473ffffffffffffffffffffffffffffffffffffffff1690506000600384815481106109eb576109ea610f09565b5b906000526020600020906005020160020154905060008273ffffffffffffffffffffffffffffffffffffffff1682604051610a25906112f2565b60006040518083038185875af1925050503d8060008114610a62576040519150601f19603f3d011682016040523d82523d6000602084013e610a67565b606091505b5050905080610aab576040517f08c379a0000000000000000000000000000000000000000000000000000000008152600401610aa29061139f565b60405180910390fd5b5050505b5050565b60008181548110610ac357600080fd5b906000526020600020016000915054906101000a900473ffffffffffffffffffffffffffffffffffffffff1681565b6000819050919050565b610b0581610af2565b82525050565b6000602082019050610b206000830184610afc565b92915050565b600081519050919050565b600082825260208201905092915050565b6000819050602082019050919050565b610b5b81610af2565b82525050565b600073ffffffffffffffffffffffffffffffffffffffff82169050919050565b6000610b8c82610b61565b9050919050565b610b9c81610b81565b82525050565b60008115159050919050565b610bb781610ba2565b82525050565b60a082016000820151610bd36000850182610b52565b506020820151610be66020850182610b93565b506040820151610bf96040850182610b52565b506060820151610c0c6060850182610b52565b506080820151610c1f6080850182610bae565b50505050565b6000610c318383610bbd565b60a08301905092915050565b6000602082019050919050565b6000610c5582610b26565b610c5f8185610b31565b9350610c6a83610b42565b8060005b83811015610c9b578151610c828882610c25565b9750610c8d83610c3d565b925050600181019050610c6e565b5085935050505092915050565b60006020820190508181036000830152610cc28184610c4a565b905092915050565b600080fd5b610cd881610af2565b8114610ce357600080fd5b50565b600081359050610cf581610ccf565b92915050565b610d0481610b81565b8114610d0f57600080fd5b50565b600081359050610d2181610cfb565b92915050565b60008060408385031215610d3e57610d3d610cca565b5b6000610d4c85828601610ce6565b9250506020610d5d85828601610d12565b9150509250929050565b600081519050919050565b600082825260208201905092915050565b6000819050602082019050919050565b6000610d9e82610b61565b9050919050565b610dae81610d93565b82525050565b6000610dc08383610da5565b60208301905092915050565b6000602082019050919050565b6000610de482610d67565b610dee8185610d72565b9350610df983610d83565b8060005b83811015610e2a578151610e118882610db4565b9750610e1c83610dcc565b925050600181019050610dfd565b5085935050505092915050565b60006020820190508181036000830152610e518184610dd9565b905092915050565b610e6281610d93565b8114610e6d57600080fd5b50565b600081359050610e7f81610e59565b92915050565b600060208284031215610e9b57610e9a610cca565b5b6000610ea984828501610e70565b91505092915050565b600060208284031215610ec857610ec7610cca565b5b6000610ed684828501610ce6565b91505092915050565b610ee881610d93565b82525050565b6000602082019050610f036000830184610edf565b92915050565b7f4e487b7100000000000000000000000000000000000000000000000000000000600052603260045260246000fd5b7f4e487b7100000000000000000000000000000000000000000000000000000000600052601160045260246000fd5b6000610f7282610af2565b91507fffffffffffffffffffffffffffffffffffffffffffffffffffffffffffffffff821415610fa557610fa4610f38565b5b600182019050919050565b600082825260208201905092915050565b7f4f6e6c7920617070726f766572732063616e2063616c6c20746869732066756e60008201527f6374696f6e000000000000000000000000000000000000000000000000000000602082015250565b600061101d602583610fb0565b915061102882610fc1565b604082019050919050565b6000602082019050818103600083015261104c81611010565b9050919050565b7f4f6e6c7420746865206d616e616765722063616e2063616c6c2074686973206660008201527f756e6374696f6e00000000000000000000000000000000000000000000000000602082015250565b60006110af602783610fb0565b91506110ba82611053565b604082019050919050565b600060208201905081810360008301526110de816110a2565b9050919050565b7f536f6d657468696e672077656e742077726f6e67207768696c6520616464696e60008201527f6720746865206e657720617070726f7665722c20726576657274696e6720746860208201527f65207472616e73616374696f6e00000000000000000000000000000000000000604082015250565b6000611167604d83610fb0565b9150611172826110e5565b606082019050919050565b600060208201905081810360008301526111968161115a565b9050919050565b7f54686973207472616e736665722068617320616c7265616479206265656e207360008201527f656e740000000000000000000000000000000000000000000000000000000000602082015250565b60006111f9602383610fb0565b91506112048261119d565b604082019050919050565b60006020820190508181036000830152611228816111ec565b9050919050565b7f5468652073616d6520757365722063616e277420617070726f7665207468652060008201527f7472616e73666572207477696365000000000000000000000000000000000000602082015250565b600061128b602e83610fb0565b91506112968261122f565b604082019050919050565b600060208201905081810360008301526112ba8161127e565b9050919050565b600081905092915050565b50565b60006112dc6000836112c1565b91506112e7826112cc565b600082019050919050565b60006112fd826112cf565b9150819050919050565b7f536f6d657468696e672077656e742077726f6e67207768696c65207472616e7360008201527f666572696e6720746865204574686572732c20726576657274696e672074686560208201527f207472616e73616374696f6e2c20706c656173652074727920616761696e0000604082015250565b6000611389605e83610fb0565b915061139482611307565b606082019050919050565b600060208201905081810360008301526113b88161137c565b905091905056fea2646970667358221220392d2b5b9ecd4b2dbf33da0baecf0081dd21992ee204a20ae88930108633901964736f6c634300080b0033",
  "immutableReferences": {},
  "source": "// SPDX-License-Identifier: GPL-3.0-or-later\r\npragma solidity ^0.8.0;\r\n\r\n/*\r\n    * To-do list *\r\n        * Refactor the current approach to store the approvers of the multi-sig wallet!\r\n            - Find a way to avoid the need to iterate over an array to validate if the caller belongs to the approvers!\r\n                * Good idea: https://ethereum.stackexchange.com/questions/56281/how-to-check-if-an-array-key-exists *\r\n*/\r\n\r\ncontract MultiSigWallet {\r\n    address[] public approvers; \r\n    uint public quorum;\r\n    address manager;\r\n\r\n    struct Transfer {\r\n        uint transferId;\r\n        address payable to;\r\n        uint amount;\r\n        uint approvals;\r\n        bool sent;\r\n    }\r\n\r\n    Transfer[] transfers; // array to store all the Transfer instances that will be created!\r\n\r\n    mapping(address => mapping(uint => bool)) approved; // nested mapping to keep track of the Transfers that the users have already approved! | the uint key of the second mapping represents the tranferId\r\n\r\n\r\n    constructor(address[] memory _approvers)  {\r\n        approvers = _approvers;\r\n        quorum = approvers.length;  // All the approvers are required to approve a transaction\r\n        manager = msg.sender;\r\n    }\r\n\r\n    modifier onlyManager() {\r\n        require(msg.sender == manager, \"Onlt the manager can call this function\");\r\n        _;\r\n    }\r\n\r\n    modifier onlyApprovers() {\r\n        bool allowed = false;\r\n\r\n        // Look in the approvers[] array if the caller(msg.sender) exists!\r\n        for(uint i = 0; i < approvers.length; i++) {\r\n            if(msg.sender == approvers[i]) {\r\n                allowed = true;\r\n                break;\r\n            }\r\n        }\r\n        \r\n        // if the caller was found in the approvers[], the allowed variables will be set to true!\r\n        require(allowed == true, \"Only approvers can call this function\");\r\n        _;\r\n    }\r\n\r\n    function addApprover(address newApprover) external onlyManager() {\r\n        approvers.push(newApprover);\r\n        quorum++;\r\n        require(quorum == approvers.length, \"Something went wrong while adding the new approver, reverting the transaction\");\r\n    }\r\n\r\n    function getApprovers() external view returns(address[] memory) {\r\n        return approvers;\r\n    }\r\n\r\n    function getTransfers() external view returns(Transfer[] memory) {\r\n        return transfers;\r\n    }\r\n\r\n    function createTransfer(uint _amount, address payable _to) external onlyApprovers() {\r\n        transfers.push(Transfer(transfers.length, _to, _amount,0,false));\r\n    }\r\n\r\n    function approveTransfer(uint _transferId) external onlyApprovers() {\r\n        require(transfers[_transferId].sent == false, \"This transfer has already been sent\");\r\n        require(approved[msg.sender][_transferId] == false, \"The same user can't approve the transfer twice\");\r\n\r\n        // Register that this caller has already approved this transaction\r\n        approved[msg.sender][_transferId] = true;\r\n\r\n        // If above validations are successfully meet, proceed to approve the transaction!\r\n        transfers[_transferId].approvals++;\r\n\r\n        // Check if the transaction has enough approvals\r\n        if (transfers[_transferId].approvals == quorum){\r\n            // Update the sent variable to true before sending the Ethers\r\n            transfers[_transferId].sent = true; \r\n\r\n            address payable to = transfers[_transferId].to;\r\n            uint amount = transfers[_transferId].amount;\r\n            // Send the amount of Ethers to the receiver using the call{}(\"\") method!\r\n            (bool success, ) = to.call{ value: amount }(\"\");\r\n            require(success, \"Something went wrong while transfering the Ethers, reverting the transaction, please try again\");\r\n        }     \r\n    }\r\n\r\n    // function to receive Ethers\r\n    receive() external payable {}\r\n\r\n\r\n}",
  "sourcePath": "/mnt/c/pr0/blockchain-projects/multi-sig-wallet/contracts/MultiSigWallet.sol",
  "compiler": {
    "name": "solc",
    "version": "0.8.11+commit.d7f03943.Emscripten.clang"
  },
  "schemaVersion": "3.4.4",
  "updatedAt": "2022-06-08T14:55:25.344Z",
  "networkType": "ethereum",
  "devdoc": {
    "kind": "dev",
    "methods": {},
    "version": 1
  },
  "userdoc": {
    "kind": "user",
    "methods": {},
    "version": 1
  }
}